{
  "_format": "hh-sol-artifact-1",
  "contractName": "TreeOfWealth",
  "sourceName": "contracts/TreeOfWealth.sol",
  "abi": [
    {
      "inputs": [
        {
          "internalType": "string",
          "name": "metadata",
          "type": "string"
        },
        {
          "internalType": "uint256",
          "name": "_priceRaise",
          "type": "uint256"
        }
      ],
      "stateMutability": "nonpayable",
      "type": "constructor"
    },
    {
      "anonymous": false,
      "inputs": [
        {
          "indexed": true,
          "internalType": "address",
          "name": "owner",
          "type": "address"
        },
        {
          "indexed": true,
          "internalType": "address",
          "name": "approved",
          "type": "address"
        },
        {
          "indexed": true,
          "internalType": "uint256",
          "name": "tokenId",
          "type": "uint256"
        }
      ],
      "name": "Approval",
      "type": "event"
    },
    {
      "anonymous": false,
      "inputs": [
        {
          "indexed": true,
          "internalType": "address",
          "name": "owner",
          "type": "address"
        },
        {
          "indexed": true,
          "internalType": "address",
          "name": "operator",
          "type": "address"
        },
        {
          "indexed": false,
          "internalType": "bool",
          "name": "approved",
          "type": "bool"
        }
      ],
      "name": "ApprovalForAll",
      "type": "event"
    },
    {
      "anonymous": false,
      "inputs": [
        {
          "indexed": true,
          "internalType": "address",
          "name": "previousOwner",
          "type": "address"
        },
        {
          "indexed": true,
          "internalType": "address",
          "name": "newOwner",
          "type": "address"
        }
      ],
      "name": "OwnershipTransferred",
      "type": "event"
    },
    {
      "anonymous": false,
      "inputs": [
        {
          "indexed": false,
          "internalType": "address",
          "name": "newOwner",
          "type": "address"
        }
      ],
      "name": "RepeatingOwnerChange",
      "type": "event"
    },
    {
      "anonymous": false,
      "inputs": [
        {
          "indexed": true,
          "internalType": "address",
          "name": "from",
          "type": "address"
        },
        {
          "indexed": true,
          "internalType": "address",
          "name": "to",
          "type": "address"
        },
        {
          "indexed": true,
          "internalType": "uint256",
          "name": "tokenId",
          "type": "uint256"
        }
      ],
      "name": "Transfer",
      "type": "event"
    },
    {
      "anonymous": false,
      "inputs": [
        {
          "indexed": false,
          "internalType": "address",
          "name": "owner",
          "type": "address"
        },
        {
          "indexed": false,
          "internalType": "uint256",
          "name": "value",
          "type": "uint256"
        }
      ],
      "name": "Withdraw",
      "type": "event"
    },
    {
      "inputs": [
        {
          "internalType": "address",
          "name": "to",
          "type": "address"
        },
        {
          "internalType": "uint256",
          "name": "tokenId",
          "type": "uint256"
        }
      ],
      "name": "approve",
      "outputs": [],
      "stateMutability": "nonpayable",
      "type": "function"
    },
    {
      "inputs": [],
      "name": "availableToWithdraw",
      "outputs": [
        {
          "internalType": "uint256",
          "name": "",
          "type": "uint256"
        }
      ],
      "stateMutability": "view",
      "type": "function"
    },
    {
      "inputs": [
        {
          "internalType": "address",
          "name": "owner",
          "type": "address"
        }
      ],
      "name": "balanceOf",
      "outputs": [
        {
          "internalType": "uint256",
          "name": "",
          "type": "uint256"
        }
      ],
      "stateMutability": "view",
      "type": "function"
    },
    {
      "inputs": [],
      "name": "currentHost",
      "outputs": [
        {
          "internalType": "address",
          "name": "",
          "type": "address"
        }
      ],
      "stateMutability": "view",
      "type": "function"
    },
    {
      "inputs": [],
      "name": "currentPrice",
      "outputs": [
        {
          "internalType": "uint256",
          "name": "",
          "type": "uint256"
        }
      ],
      "stateMutability": "view",
      "type": "function"
    },
    {
      "inputs": [],
      "name": "currentRepeatingOwner",
      "outputs": [
        {
          "internalType": "address",
          "name": "",
          "type": "address"
        }
      ],
      "stateMutability": "view",
      "type": "function"
    },
    {
      "inputs": [
        {
          "internalType": "uint256",
          "name": "tokenId",
          "type": "uint256"
        }
      ],
      "name": "getApproved",
      "outputs": [
        {
          "internalType": "address",
          "name": "",
          "type": "address"
        }
      ],
      "stateMutability": "view",
      "type": "function"
    },
    {
      "inputs": [],
      "name": "getWithdrawnValue",
      "outputs": [
        {
          "internalType": "uint256",
          "name": "",
          "type": "uint256"
        }
      ],
      "stateMutability": "view",
      "type": "function"
    },
    {
      "inputs": [
        {
          "internalType": "address",
          "name": "addr",
          "type": "address"
        }
      ],
      "name": "hasBeenHost",
      "outputs": [
        {
          "internalType": "bool",
          "name": "",
          "type": "bool"
        }
      ],
      "stateMutability": "view",
      "type": "function"
    },
    {
      "inputs": [],
      "name": "host",
      "outputs": [],
      "stateMutability": "payable",
      "type": "function"
    },
    {
      "inputs": [],
      "name": "hostsCount",
      "outputs": [
        {
          "internalType": "uint256",
          "name": "",
          "type": "uint256"
        }
      ],
      "stateMutability": "view",
      "type": "function"
    },
    {
      "inputs": [
        {
          "internalType": "address",
          "name": "owner",
          "type": "address"
        },
        {
          "internalType": "address",
          "name": "operator",
          "type": "address"
        }
      ],
      "name": "isApprovedForAll",
      "outputs": [
        {
          "internalType": "bool",
          "name": "",
          "type": "bool"
        }
      ],
      "stateMutability": "view",
      "type": "function"
    },
    {
      "inputs": [],
      "name": "isRepeatingHost",
      "outputs": [
        {
          "internalType": "bool",
          "name": "",
          "type": "bool"
        }
      ],
      "stateMutability": "view",
      "type": "function"
    },
    {
      "inputs": [],
      "name": "name",
      "outputs": [
        {
          "internalType": "string",
          "name": "",
          "type": "string"
        }
      ],
      "stateMutability": "view",
      "type": "function"
    },
    {
      "inputs": [],
      "name": "owner",
      "outputs": [
        {
          "internalType": "address",
          "name": "",
          "type": "address"
        }
      ],
      "stateMutability": "view",
      "type": "function"
    },
    {
      "inputs": [
        {
          "internalType": "uint256",
          "name": "tokenId",
          "type": "uint256"
        }
      ],
      "name": "ownerOf",
      "outputs": [
        {
          "internalType": "address",
          "name": "",
          "type": "address"
        }
      ],
      "stateMutability": "view",
      "type": "function"
    },
    {
      "inputs": [],
      "name": "priceRaise",
      "outputs": [
        {
          "internalType": "uint256",
          "name": "",
          "type": "uint256"
        }
      ],
      "stateMutability": "view",
      "type": "function"
    },
    {
      "inputs": [],
      "name": "renounceOwnership",
      "outputs": [],
      "stateMutability": "nonpayable",
      "type": "function"
    },
    {
      "inputs": [],
      "name": "repeatHostingCount",
      "outputs": [
        {
          "internalType": "uint256",
          "name": "",
          "type": "uint256"
        }
      ],
      "stateMutability": "view",
      "type": "function"
    },
    {
      "inputs": [],
      "name": "repeatingValue",
      "outputs": [
        {
          "internalType": "uint256",
          "name": "",
          "type": "uint256"
        }
      ],
      "stateMutability": "view",
      "type": "function"
    },
    {
      "inputs": [
        {
          "internalType": "address",
          "name": "from",
          "type": "address"
        },
        {
          "internalType": "address",
          "name": "to",
          "type": "address"
        },
        {
          "internalType": "uint256",
          "name": "tokenId",
          "type": "uint256"
        }
      ],
      "name": "safeTransferFrom",
      "outputs": [],
      "stateMutability": "nonpayable",
      "type": "function"
    },
    {
      "inputs": [
        {
          "internalType": "address",
          "name": "from",
          "type": "address"
        },
        {
          "internalType": "address",
          "name": "to",
          "type": "address"
        },
        {
          "internalType": "uint256",
          "name": "tokenId",
          "type": "uint256"
        },
        {
          "internalType": "bytes",
          "name": "_data",
          "type": "bytes"
        }
      ],
      "name": "safeTransferFrom",
      "outputs": [],
      "stateMutability": "nonpayable",
      "type": "function"
    },
    {
      "inputs": [
        {
          "internalType": "address",
          "name": "operator",
          "type": "address"
        },
        {
          "internalType": "bool",
          "name": "approved",
          "type": "bool"
        }
      ],
      "name": "setApprovalForAll",
      "outputs": [],
      "stateMutability": "nonpayable",
      "type": "function"
    },
    {
      "inputs": [
        {
          "internalType": "address",
          "name": "owner",
          "type": "address"
        },
        {
          "internalType": "string",
          "name": "nextName",
          "type": "string"
        }
      ],
      "name": "setCurrentRepeatingOwner",
      "outputs": [],
      "stateMutability": "nonpayable",
      "type": "function"
    },
    {
      "inputs": [
        {
          "internalType": "address",
          "name": "owner",
          "type": "address"
        },
        {
          "internalType": "string",
          "name": "nextName",
          "type": "string"
        }
      ],
      "name": "setRepeatingOwnerName",
      "outputs": [],
      "stateMutability": "nonpayable",
      "type": "function"
    },
    {
      "inputs": [
        {
          "internalType": "bytes4",
          "name": "interfaceId",
          "type": "bytes4"
        }
      ],
      "name": "supportsInterface",
      "outputs": [
        {
          "internalType": "bool",
          "name": "",
          "type": "bool"
        }
      ],
      "stateMutability": "view",
      "type": "function"
    },
    {
      "inputs": [],
      "name": "symbol",
      "outputs": [
        {
          "internalType": "string",
          "name": "",
          "type": "string"
        }
      ],
      "stateMutability": "view",
      "type": "function"
    },
    {
      "inputs": [
        {
          "internalType": "uint256",
          "name": "tokenId",
          "type": "uint256"
        }
      ],
      "name": "tokenURI",
      "outputs": [
        {
          "internalType": "string",
          "name": "",
          "type": "string"
        }
      ],
      "stateMutability": "view",
      "type": "function"
    },
    {
      "inputs": [
        {
          "internalType": "address",
          "name": "from",
          "type": "address"
        },
        {
          "internalType": "address",
          "name": "to",
          "type": "address"
        },
        {
          "internalType": "uint256",
          "name": "tokenId",
          "type": "uint256"
        }
      ],
      "name": "transferFrom",
      "outputs": [],
      "stateMutability": "nonpayable",
      "type": "function"
    },
    {
      "inputs": [
        {
          "internalType": "address",
          "name": "newOwner",
          "type": "address"
        }
      ],
      "name": "transferOwnership",
      "outputs": [],
      "stateMutability": "nonpayable",
      "type": "function"
    },
    {
      "inputs": [],
      "name": "withdraw",
      "outputs": [],
      "stateMutability": "nonpayable",
      "type": "function"
    }
  ],
  "bytecode": "0x60806040523480156200001157600080fd5b506040516200364338038062003643833981810160405281019062000037919062000401565b620000576200004b620001d860201b60201c565b620001e060201b60201c565b81600190805190602001906200006f929190620002c8565b5033600260006101000a81548173ffffffffffffffffffffffffffffffffffffffff021916908373ffffffffffffffffffffffffffffffffffffffff160217905550620000c8600c620002a460201b62001a481760201c565b620000df600c620002ba60201b62001a5e1760201c565b60046000600260009054906101000a900473ffffffffffffffffffffffffffffffffffffffff1673ffffffffffffffffffffffffffffffffffffffff1673ffffffffffffffffffffffffffffffffffffffff168152602001908152602001600020819055506003600260009054906101000a900473ffffffffffffffffffffffffffffffffffffffff169080600181540180825580915050600190039060005260206000200160009091909190916101000a81548173ffffffffffffffffffffffffffffffffffffffff021916908373ffffffffffffffffffffffffffffffffffffffff16021790555080600b819055505050620005ef565b600033905090565b60008060009054906101000a900473ffffffffffffffffffffffffffffffffffffffff169050816000806101000a81548173ffffffffffffffffffffffffffffffffffffffff021916908373ffffffffffffffffffffffffffffffffffffffff1602179055508173ffffffffffffffffffffffffffffffffffffffff168173ffffffffffffffffffffffffffffffffffffffff167f8be0079c531659141344cd1fd0a4f28419497f9722a3daafe3b4186f6b6457e060405160405180910390a35050565b6001816000016000828254019250508190555050565b600081600001549050919050565b828054620002d690620004fa565b90600052602060002090601f016020900481019282620002fa576000855562000346565b82601f106200031557805160ff191683800117855562000346565b8280016001018555821562000346579182015b828111156200034557825182559160200191906001019062000328565b5b50905062000355919062000359565b5090565b5b80821115620003745760008160009055506001016200035a565b5090565b60006200038f620003898462000484565b6200045b565b905082815260208101848484011115620003a857600080fd5b620003b5848285620004c4565b509392505050565b600082601f830112620003cf57600080fd5b8151620003e184826020860162000378565b91505092915050565b600081519050620003fb81620005d5565b92915050565b600080604083850312156200041557600080fd5b600083015167ffffffffffffffff8111156200043057600080fd5b6200043e85828601620003bd565b92505060206200045185828601620003ea565b9150509250929050565b6000620004676200047a565b905062000475828262000530565b919050565b6000604051905090565b600067ffffffffffffffff821115620004a257620004a162000595565b5b620004ad82620005c4565b9050602081019050919050565b6000819050919050565b60005b83811015620004e4578082015181840152602081019050620004c7565b83811115620004f4576000848401525b50505050565b600060028204905060018216806200051357607f821691505b602082108114156200052a576200052962000566565b5b50919050565b6200053b82620005c4565b810181811067ffffffffffffffff821117156200055d576200055c62000595565b5b80604052505050565b7f4e487b7100000000000000000000000000000000000000000000000000000000600052602260045260246000fd5b7f4e487b7100000000000000000000000000000000000000000000000000000000600052604160045260246000fd5b6000601f19601f8301169050919050565b620005e081620004ba565b8114620005ec57600080fd5b50565b61304480620005ff6000396000f3fe6080604052600436106101d85760003560e01c806370a0823111610102578063cb3f4cd711610095578063eed8de6c11610064578063eed8de6c146106ae578063f2fde38b146106d9578063f437bc5914610702578063f963909b1461070c576101d8565b8063cb3f4cd7146105f0578063d344f4be1461061b578063e322ad2b14610646578063e985e9c514610671576101d8565b80639d1b464a116100d15780639d1b464a14610536578063a22cb46514610561578063b88d4fde1461058a578063c87b56dd146105b3576101d8565b806370a082311461048c578063715018a6146104c95780638da5cb5b146104e057806395d89b411461050b576101d8565b806323b872dd1161017a5780634465e7fa116101495780634465e7fa146103be57806345ed8398146103fb5780636352211e1461042457806369f8f16214610461576101d8565b806323b872dd1461032c57806339a491bf146103555780633ccfd60b1461037e57806342842e0e14610395576101d8565b8063095ea7b3116101b6578063095ea7b3146102825780630a8b866a146102ab578063121edf41146102d6578063127e73a114610301576101d8565b806301ffc9a7146101dd57806306fdde031461021a578063081812fc14610245575b600080fd5b3480156101e957600080fd5b5061020460048036038101906101ff91906123a2565b610737565b60405161021191906126cc565b60405180910390f35b34801561022657600080fd5b5061022f610819565b60405161023c91906126e7565b60405180910390f35b34801561025157600080fd5b5061026c600480360381019061026791906123cb565b610856565b6040516102799190612651565b60405180910390f35b34801561028e57600080fd5b506102a960048036038101906102a49190612366565b6108a4565b005b3480156102b757600080fd5b506102c06108df565b6040516102cd91906128a7565b60405180910390f35b3480156102e257600080fd5b506102eb6108e5565b6040516102f891906128a7565b60405180910390f35b34801561030d57600080fd5b506103166108eb565b6040516103239190612651565b60405180910390f35b34801561033857600080fd5b50610353600480360381019061034e919061220c565b610911565b005b34801561036157600080fd5b5061037c60048036038101906103779190612312565b61094c565b005b34801561038a57600080fd5b50610393610b31565b005b3480156103a157600080fd5b506103bc60048036038101906103b7919061220c565b610d7d565b005b3480156103ca57600080fd5b506103e560048036038101906103e091906121a7565b610db8565b6040516103f291906126cc565b60405180910390f35b34801561040757600080fd5b50610422600480360381019061041d9190612312565b610e03565b005b34801561043057600080fd5b5061044b600480360381019061044691906123cb565b610f71565b6040516104589190612651565b60405180910390f35b34801561046d57600080fd5b50610476610fe0565b60405161048391906126cc565b60405180910390f35b34801561049857600080fd5b506104b360048036038101906104ae91906121a7565b61105d565b6040516104c091906128a7565b60405180910390f35b3480156104d557600080fd5b506104de611137565b005b3480156104ec57600080fd5b506104f56111bf565b6040516105029190612651565b60405180910390f35b34801561051757600080fd5b506105206111e8565b60405161052d91906126e7565b60405180910390f35b34801561054257600080fd5b5061054b611225565b60405161055891906128a7565b60405180910390f35b34801561056d57600080fd5b50610588600480360381019061058391906122d6565b611243565b005b34801561059657600080fd5b506105b160048036038101906105ac919061225b565b61127e565b005b3480156105bf57600080fd5b506105da60048036038101906105d591906123cb565b6112b9565b6040516105e791906126e7565b60405180910390f35b3480156105fc57600080fd5b506106056113b7565b60405161061291906128a7565b60405180910390f35b34801561062757600080fd5b506106306113fe565b60405161063d9190612651565b60405180910390f35b34801561065257600080fd5b5061065b611424565b60405161066891906128a7565b60405180910390f35b34801561067d57600080fd5b50610698600480360381019061069391906121d0565b61151d565b6040516106a591906126cc565b60405180910390f35b3480156106ba57600080fd5b506106c3611525565b6040516106d091906128a7565b60405180910390f35b3480156106e557600080fd5b5061070060048036038101906106fb91906121a7565b611532565b005b61070a61162a565b005b34801561071857600080fd5b50610721611a42565b60405161072e91906128a7565b60405180910390f35b60007f80ac58cd000000000000000000000000000000000000000000000000000000007bffffffffffffffffffffffffffffffffffffffffffffffffffffffff1916827bffffffffffffffffffffffffffffffffffffffffffffffffffffffff1916148061080257507f5b5e139f000000000000000000000000000000000000000000000000000000007bffffffffffffffffffffffffffffffffffffffffffffffffffffffff1916827bffffffffffffffffffffffffffffffffffffffffffffffffffffffff1916145b80610812575061081182611a6c565b5b9050919050565b60606040518060400160405280600e81526020017f54726565206f66207765616c7468000000000000000000000000000000000000815250905090565b60006001821461089b576040517f08c379a000000000000000000000000000000000000000000000000000000000815260040161089290612827565b60405180910390fd5b60009050919050565b6040517f08c379a00000000000000000000000000000000000000000000000000000000081526004016108d690612787565b60405180910390fd5b600b5481565b60075481565b600a60009054906101000a900473ffffffffffffffffffffffffffffffffffffffff1681565b6040517f08c379a000000000000000000000000000000000000000000000000000000000815260040161094390612787565b60405180910390fd5b610954611ad6565b73ffffffffffffffffffffffffffffffffffffffff166109726111bf565b73ffffffffffffffffffffffffffffffffffffffff16146109c8576040517f08c379a00000000000000000000000000000000000000000000000000000000081526004016109bf90612847565b60405180910390fd5b6000600960008473ffffffffffffffffffffffffffffffffffffffff1673ffffffffffffffffffffffffffffffffffffffff1681526020019081526020016000208054610a1490612b72565b80601f0160208091040260200160405190810160405280929190818152602001828054610a4090612b72565b8015610a8d5780601f10610a6257610100808354040283529160200191610a8d565b820191906000526020600020905b815481529060010190602001808311610a7057829003601f168201915b505050505090506000815111610ad8576040517f08c379a0000000000000000000000000000000000000000000000000000000008152600401610acf90612867565b60405180910390fd5b81600960008573ffffffffffffffffffffffffffffffffffffffff1673ffffffffffffffffffffffffffffffffffffffff1681526020019081526020016000209080519060200190610b2b929190611fe0565b50505050565b6000610b3b611424565b905060008111610b80576040517f08c379a0000000000000000000000000000000000000000000000000000000008152600401610b77906127a7565b60405180910390fd5b610bc96040518060400160405280601781526020017f53657474696e67206c6173742077697468647261774174000000000000000000815250610bc3600c611a5e565b33611ade565b610bd3600c611a5e565b600460003373ffffffffffffffffffffffffffffffffffffffff1673ffffffffffffffffffffffffffffffffffffffff168152602001908152602001600020819055506000600860003373ffffffffffffffffffffffffffffffffffffffff1673ffffffffffffffffffffffffffffffffffffffff168152602001908152602001600020541115610ca4576000600860003373ffffffffffffffffffffffffffffffffffffffff1673ffffffffffffffffffffffffffffffffffffffff168152602001908152602001600020819055505b80600560003373ffffffffffffffffffffffffffffffffffffffff1673ffffffffffffffffffffffffffffffffffffffff1681526020019081526020016000206000828254610cf391906129a7565b925050819055503373ffffffffffffffffffffffffffffffffffffffff166108fc829081150290604051600060405180830381858888f19350505050158015610d40573d6000803e3d6000fd5b507f884edad9ce6fa2440d8a54cc123490eb96d2768479d49ff9c7366125a94243643382604051610d7292919061266c565b60405180910390a150565b6040517f08c379a0000000000000000000000000000000000000000000000000000000008152600401610daf90612787565b60405180910390fd5b600080600460008473ffffffffffffffffffffffffffffffffffffffff1673ffffffffffffffffffffffffffffffffffffffff16815260200190815260200160002054119050919050565b610e0b611ad6565b73ffffffffffffffffffffffffffffffffffffffff16610e296111bf565b73ffffffffffffffffffffffffffffffffffffffff1614610e7f576040517f08c379a0000000000000000000000000000000000000000000000000000000008152600401610e7690612847565b60405180910390fd5b81600a60006101000a81548173ffffffffffffffffffffffffffffffffffffffff021916908373ffffffffffffffffffffffffffffffffffffffff16021790555080600960008473ffffffffffffffffffffffffffffffffffffffff1673ffffffffffffffffffffffffffffffffffffffff1681526020019081526020016000209080519060200190610f13929190611fe0565b507fb601207546c7ac4ae15c80a28d8e586455f454e8be0b9c791c716ffa74467f55600a60009054906101000a900473ffffffffffffffffffffffffffffffffffffffff16604051610f659190612651565b60405180910390a15050565b600060018214610fb6576040517f08c379a0000000000000000000000000000000000000000000000000000000008152600401610fad906127e7565b60405180910390fd5b600260009054906101000a900473ffffffffffffffffffffffffffffffffffffffff169050919050565b6000600260009054906101000a900473ffffffffffffffffffffffffffffffffffffffff1673ffffffffffffffffffffffffffffffffffffffff163373ffffffffffffffffffffffffffffffffffffffff1614801561105857506000611044611424565b1180611057575060006110556113b7565b115b5b905090565b60008073ffffffffffffffffffffffffffffffffffffffff168273ffffffffffffffffffffffffffffffffffffffff1614156110ce576040517f08c379a00000000000000000000000000000000000000000000000000000000081526004016110c5906127c7565b60405180910390fd5b8173ffffffffffffffffffffffffffffffffffffffff16600260009054906101000a900473ffffffffffffffffffffffffffffffffffffffff1673ffffffffffffffffffffffffffffffffffffffff16141561112d5760019050611132565b600090505b919050565b61113f611ad6565b73ffffffffffffffffffffffffffffffffffffffff1661115d6111bf565b73ffffffffffffffffffffffffffffffffffffffff16146111b3576040517f08c379a00000000000000000000000000000000000000000000000000000000081526004016111aa90612847565b60405180910390fd5b6111bd6000611b7d565b565b60008060009054906101000a900473ffffffffffffffffffffffffffffffffffffffff16905090565b60606040518060400160405280600381526020017f546f570000000000000000000000000000000000000000000000000000000000815250905090565b6000600b54611234600c611a5e565b61123e9190612a2e565b905090565b6040517f08c379a000000000000000000000000000000000000000000000000000000000815260040161127590612787565b60405180910390fd5b6040517f08c379a00000000000000000000000000000000000000000000000000000000081526004016112b090612787565b60405180910390fd5b6060600182146112fe576040517f08c379a00000000000000000000000000000000000000000000000000000000081526004016112f590612887565b60405180910390fd5b6113916001805461130e90612b72565b80601f016020809104026020016040519081016040528092919081815260200182805461133a90612b72565b80156113875780601f1061135c57610100808354040283529160200191611387565b820191906000526020600020905b81548152906001019060200180831161136a57829003601f168201915b5050505050611c41565b6040516020016113a1919061262f565b6040516020818303038152906040529050919050565b6000600560003373ffffffffffffffffffffffffffffffffffffffff1673ffffffffffffffffffffffffffffffffffffffff16815260200190815260200160002054905090565b600260009054906101000a900473ffffffffffffffffffffffffffffffffffffffff1681565b600080600460003373ffffffffffffffffffffffffffffffffffffffff1673ffffffffffffffffffffffffffffffffffffffff1681526020019081526020016000205490506000611475600c611a5e565b9050611482338383611de0565b600080831415801561149357508183105b156114ca57600b5483836114a79190612a88565b6114b19190612a2e565b816114bc91906129a7565b90506114c9828483611e7f565b5b600860003373ffffffffffffffffffffffffffffffffffffffff1673ffffffffffffffffffffffffffffffffffffffff168152602001908152602001600020548161151591906129a7565b935050505090565b600092915050565b6000600380549050905090565b61153a611ad6565b73ffffffffffffffffffffffffffffffffffffffff166115586111bf565b73ffffffffffffffffffffffffffffffffffffffff16146115ae576040517f08c379a00000000000000000000000000000000000000000000000000000000081526004016115a590612847565b60405180910390fd5b600073ffffffffffffffffffffffffffffffffffffffff168173ffffffffffffffffffffffffffffffffffffffff16141561161e576040517f08c379a000000000000000000000000000000000000000000000000000000000815260040161161590612767565b60405180910390fd5b61162781611b7d565b50565b600260009054906101000a900473ffffffffffffffffffffffffffffffffffffffff1673ffffffffffffffffffffffffffffffffffffffff163373ffffffffffffffffffffffffffffffffffffffff1614156116bb576040517f08c379a00000000000000000000000000000000000000000000000000000000081526004016116b290612807565b60405180910390fd5b6116c3611225565b3414611704576040517f08c379a00000000000000000000000000000000000000000000000000000000081526004016116fb90612747565b60405180910390fd5b61170e600c611a48565b600061171a600c611a5e565b9050600b5460065461172c9190612a2e565b6007600082825461173d91906129a7565b92505081905550600b546006546117549190612a2e565b60086000600a60009054906101000a900473ffffffffffffffffffffffffffffffffffffffff1673ffffffffffffffffffffffffffffffffffffffff1673ffffffffffffffffffffffffffffffffffffffff16815260200190815260200160002060008282546117c491906129a7565b925050819055506000600460003373ffffffffffffffffffffffffffffffffffffffff1673ffffffffffffffffffffffffffffffffffffffff1681526020019081526020016000205414156118ff576118536040518060400160405280601081526020017f53657474696e67206e657720686f7374000000000000000000000000000000008152508233611ade565b80600460003373ffffffffffffffffffffffffffffffffffffffff1673ffffffffffffffffffffffffffffffffffffffff168152602001908152602001600020819055506003339080600181540180825580915050600190039060005260206000200160009091909190916101000a81548173ffffffffffffffffffffffffffffffffffffffff021916908373ffffffffffffffffffffffffffffffffffffffff160217905550611958565b61193d6040518060400160405280600e81526020017f526570656174696e6720686f7374000000000000000000000000000000000000815250611f1e565b60016006600082825461195091906129a7565b925050819055505b6000600260009054906101000a900473ffffffffffffffffffffffffffffffffffffffff16905033600260006101000a81548173ffffffffffffffffffffffffffffffffffffffff021916908373ffffffffffffffffffffffffffffffffffffffff1602179055506001600260009054906101000a900473ffffffffffffffffffffffffffffffffffffffff1673ffffffffffffffffffffffffffffffffffffffff168273ffffffffffffffffffffffffffffffffffffffff167fddf252ad1be2c89b69c2b068fc378daa952ba7f163c4a11628f55a4df523b3ef60405160405180910390a45050565b60065481565b6001816000016000828254019250508190555050565b600081600001549050919050565b60007f01ffc9a7000000000000000000000000000000000000000000000000000000007bffffffffffffffffffffffffffffffffffffffffffffffffffffffff1916827bffffffffffffffffffffffffffffffffffffffffffffffffffffffff1916149050919050565b600033905090565b611b78838383604051602401611af693929190612709565b6040516020818303038152906040527fe3849f79000000000000000000000000000000000000000000000000000000007bffffffffffffffffffffffffffffffffffffffffffffffffffffffff19166020820180517bffffffffffffffffffffffffffffffffffffffffffffffffffffffff8381831617835250505050611fb7565b505050565b60008060009054906101000a900473ffffffffffffffffffffffffffffffffffffffff169050816000806101000a81548173ffffffffffffffffffffffffffffffffffffffff021916908373ffffffffffffffffffffffffffffffffffffffff1602179055508173ffffffffffffffffffffffffffffffffffffffff168173ffffffffffffffffffffffffffffffffffffffff167f8be0079c531659141344cd1fd0a4f28419497f9722a3daafe3b4186f6b6457e060405160405180910390a35050565b6060600082511415611c6457604051806020016040528060008152509050611ddb565b6000604051806060016040528060408152602001612fcf6040913990506000600360028551611c9391906129a7565b611c9d91906129fd565b6004611ca99190612a2e565b90506000602082611cba91906129a7565b67ffffffffffffffff811115611cf9577f4e487b7100000000000000000000000000000000000000000000000000000000600052604160045260246000fd5b6040519080825280601f01601f191660200182016040528015611d2b5781602001600182028036833780820191505090505b509050818152600183018586518101602084015b81831015611d9a576003830192508251603f8160121c168501518253600182019150603f81600c1c168501518253600182019150603f8160061c168501518253600182019150603f8116850151825360018201915050611d3f565b600389510660018114611db45760028114611dc457611dcf565b613d3d60f01b6002830352611dcf565b603d60f81b60018303525b50505050508093505050505b919050565b611e7a838383604051602401611df893929190612695565b6040516020818303038152906040527f8786135e000000000000000000000000000000000000000000000000000000007bffffffffffffffffffffffffffffffffffffffffffffffffffffffff19166020820180517bffffffffffffffffffffffffffffffffffffffffffffffffffffffff8381831617835250505050611fb7565b505050565b611f19838383604051602401611e97939291906128c2565b6040516020818303038152906040527fe7820a74000000000000000000000000000000000000000000000000000000007bffffffffffffffffffffffffffffffffffffffffffffffffffffffff19166020820180517bffffffffffffffffffffffffffffffffffffffffffffffffffffffff8381831617835250505050611fb7565b505050565b611fb481604051602401611f3291906126e7565b6040516020818303038152906040527f41304fac000000000000000000000000000000000000000000000000000000007bffffffffffffffffffffffffffffffffffffffffffffffffffffffff19166020820180517bffffffffffffffffffffffffffffffffffffffffffffffffffffffff8381831617835250505050611fb7565b50565b60008151905060006a636f6e736f6c652e6c6f679050602083016000808483855afa5050505050565b828054611fec90612b72565b90600052602060002090601f01602090048101928261200e5760008555612055565b82601f1061202757805160ff1916838001178555612055565b82800160010185558215612055579182015b82811115612054578251825591602001919060010190612039565b5b5090506120629190612066565b5090565b5b8082111561207f576000816000905550600101612067565b5090565b60006120966120918461291e565b6128f9565b9050828152602081018484840111156120ae57600080fd5b6120b9848285612b30565b509392505050565b60006120d46120cf8461294f565b6128f9565b9050828152602081018484840111156120ec57600080fd5b6120f7848285612b30565b509392505050565b60008135905061210e81612f72565b92915050565b60008135905061212381612f89565b92915050565b60008135905061213881612fa0565b92915050565b600082601f83011261214f57600080fd5b813561215f848260208601612083565b91505092915050565b600082601f83011261217957600080fd5b81356121898482602086016120c1565b91505092915050565b6000813590506121a181612fb7565b92915050565b6000602082840312156121b957600080fd5b60006121c7848285016120ff565b91505092915050565b600080604083850312156121e357600080fd5b60006121f1858286016120ff565b9250506020612202858286016120ff565b9150509250929050565b60008060006060848603121561222157600080fd5b600061222f868287016120ff565b9350506020612240868287016120ff565b925050604061225186828701612192565b9150509250925092565b6000806000806080858703121561227157600080fd5b600061227f878288016120ff565b9450506020612290878288016120ff565b93505060406122a187828801612192565b925050606085013567ffffffffffffffff8111156122be57600080fd5b6122ca8782880161213e565b91505092959194509250565b600080604083850312156122e957600080fd5b60006122f7858286016120ff565b925050602061230885828601612114565b9150509250929050565b6000806040838503121561232557600080fd5b6000612333858286016120ff565b925050602083013567ffffffffffffffff81111561235057600080fd5b61235c85828601612168565b9150509250929050565b6000806040838503121561237957600080fd5b6000612387858286016120ff565b925050602061239885828601612192565b9150509250929050565b6000602082840312156123b457600080fd5b60006123c284828501612129565b91505092915050565b6000602082840312156123dd57600080fd5b60006123eb84828501612192565b91505092915050565b6123fd81612abc565b82525050565b61240c81612ace565b82525050565b600061241d82612980565b612427818561298b565b9350612437818560208601612b3f565b61244081612c91565b840191505092915050565b600061245682612980565b612460818561299c565b9350612470818560208601612b3f565b80840191505092915050565b600061248960168361298b565b915061249482612ca2565b602082019050919050565b60006124ac60268361298b565b91506124b782612ccb565b604082019050919050565b60006124cf60308361298b565b91506124da82612d1a565b604082019050919050565b60006124f260148361298b565b91506124fd82612d69565b602082019050919050565b6000612515602a8361298b565b915061252082612d92565b604082019050919050565b600061253860298361298b565b915061254382612de1565b604082019050919050565b600061255b60198361298b565b915061256682612e30565b602082019050919050565b600061257e602c8361298b565b915061258982612e59565b604082019050919050565b60006125a160208361298b565b91506125ac82612ea8565b602082019050919050565b60006125c460198361298b565b91506125cf82612ed1565b602082019050919050565b60006125e7602f8361298b565b91506125f282612efa565b604082019050919050565b600061260a601d8361299c565b915061261582612f49565b601d82019050919050565b61262981612b26565b82525050565b600061263a826125fd565b9150612646828461244b565b915081905092915050565b600060208201905061266660008301846123f4565b92915050565b600060408201905061268160008301856123f4565b61268e6020830184612620565b9392505050565b60006060820190506126aa60008301866123f4565b6126b76020830185612620565b6126c46040830184612620565b949350505050565b60006020820190506126e16000830184612403565b92915050565b600060208201905081810360008301526127018184612412565b905092915050565b600060608201905081810360008301526127238186612412565b90506127326020830185612620565b61273f60408301846123f4565b949350505050565b600060208201905081810360008301526127608161247c565b9050919050565b600060208201905081810360008301526127808161249f565b9050919050565b600060208201905081810360008301526127a0816124c2565b9050919050565b600060208201905081810360008301526127c0816124e5565b9050919050565b600060208201905081810360008301526127e081612508565b9050919050565b600060208201905081810360008301526128008161252b565b9050919050565b600060208201905081810360008301526128208161254e565b9050919050565b6000602082019050818103600083015261284081612571565b9050919050565b6000602082019050818103600083015261286081612594565b9050919050565b60006020820190508181036000830152612880816125b7565b9050919050565b600060208201905081810360008301526128a0816125da565b9050919050565b60006020820190506128bc6000830184612620565b92915050565b60006060820190506128d76000830186612620565b6128e46020830185612620565b6128f16040830184612620565b949350505050565b6000612903612914565b905061290f8282612ba4565b919050565b6000604051905090565b600067ffffffffffffffff82111561293957612938612c62565b5b61294282612c91565b9050602081019050919050565b600067ffffffffffffffff82111561296a57612969612c62565b5b61297382612c91565b9050602081019050919050565b600081519050919050565b600082825260208201905092915050565b600081905092915050565b60006129b282612b26565b91506129bd83612b26565b9250827fffffffffffffffffffffffffffffffffffffffffffffffffffffffffffffffff038211156129f2576129f1612bd5565b5b828201905092915050565b6000612a0882612b26565b9150612a1383612b26565b925082612a2357612a22612c04565b5b828204905092915050565b6000612a3982612b26565b9150612a4483612b26565b9250817fffffffffffffffffffffffffffffffffffffffffffffffffffffffffffffffff0483118215151615612a7d57612a7c612bd5565b5b828202905092915050565b6000612a9382612b26565b9150612a9e83612b26565b925082821015612ab157612ab0612bd5565b5b828203905092915050565b6000612ac782612b06565b9050919050565b60008115159050919050565b60007fffffffff0000000000000000000000000000000000000000000000000000000082169050919050565b600073ffffffffffffffffffffffffffffffffffffffff82169050919050565b6000819050919050565b82818337600083830152505050565b60005b83811015612b5d578082015181840152602081019050612b42565b83811115612b6c576000848401525b50505050565b60006002820490506001821680612b8a57607f821691505b60208210811415612b9e57612b9d612c33565b5b50919050565b612bad82612c91565b810181811067ffffffffffffffff82111715612bcc57612bcb612c62565b5b80604052505050565b7f4e487b7100000000000000000000000000000000000000000000000000000000600052601160045260246000fd5b7f4e487b7100000000000000000000000000000000000000000000000000000000600052601260045260246000fd5b7f4e487b7100000000000000000000000000000000000000000000000000000000600052602260045260246000fd5b7f4e487b7100000000000000000000000000000000000000000000000000000000600052604160045260246000fd5b6000601f19601f8301169050919050565b7f546865207072696365206973206e6f7420726967687400000000000000000000600082015250565b7f4f776e61626c653a206e6577206f776e657220697320746865207a65726f206160008201527f6464726573730000000000000000000000000000000000000000000000000000602082015250565b7f546f573a2043616e206f6e6c79207472616e73666572206279207573696e672060008201527f746865206f776e2829206d6574686f6400000000000000000000000000000000602082015250565b7f4e6f2066756e647320746f207769746864726177000000000000000000000000600082015250565b7f4552433732313a2062616c616e636520717565727920666f7220746865207a6560008201527f726f206164647265737300000000000000000000000000000000000000000000602082015250565b7f4552433732313a206f776e657220717565727920666f72206e6f6e657869737460008201527f656e7420746f6b656e0000000000000000000000000000000000000000000000602082015250565b7f596f7520616c726561647920686f737420746865207472656500000000000000600082015250565b7f4552433732313a20617070726f76656420717565727920666f72206e6f6e657860008201527f697374656e7420746f6b656e0000000000000000000000000000000000000000602082015250565b7f4f776e61626c653a2063616c6c6572206973206e6f7420746865206f776e6572600082015250565b7f526570656174696e67206f776e6572206e6f7420666f756e6400000000000000600082015250565b7f4552433732314d657461646174613a2055524920717565727920666f72206e6f60008201527f6e6578697374656e7420746f6b656e0000000000000000000000000000000000602082015250565b7f646174613a6170706c69636174696f6e2f6a736f6e3b6261736536342c000000600082015250565b612f7b81612abc565b8114612f8657600080fd5b50565b612f9281612ace565b8114612f9d57600080fd5b50565b612fa981612ada565b8114612fb457600080fd5b50565b612fc081612b26565b8114612fcb57600080fd5b5056fe4142434445464748494a4b4c4d4e4f505152535455565758595a6162636465666768696a6b6c6d6e6f707172737475767778797a303132333435363738392b2fa2646970667358221220a8662043a4af093c642d18a327e6789a880beb49f26a455ef6047f50dbc329ed64736f6c63430008040033",
  "linkReferences": {},
  "deployedLinkReferences": {}
}